S01300004170706C69636174696F6E2E737265639D
S11300000C942A000C9474020C949B020C94C2026B
S11300100C948E030C9465030C9447000C944700D5
S11300200C9447000C9447000C9427030C94FE0294
S11300300C9447000C9447000C9447000C94470020
S11300400C945A010C9447000C9447000C944700FC
S11300500C94470011241FBECFE5D8E0DEBFCDBF0E
S113006010E0A0E6B0E0E8EAF7E002C005900D92E7
S1130070A036B107D9F720E0A0E6B0E001C01D9298
S1130080A237B207E1F70E9474000C94D2030C94D7
S1130090000084E60E94A00084E60E94FD0008950A
S11300A084E60E94C00084E60E941D0108950E9417
S11300B0E0000E943D01089584E60E94A0000E9491
S11300C03D0108950E94E00084E60E94FD00089529
S11300D041E062E080E00E940102089540E062E0B5
S11300E080E00E940102089541E062E080E00E9405
S11300F08E010E94B7030E94CE03C82F8C3489F06E
S113010018F4843441F010C0823541F0853561F42F
S11301100E944900F0CF0E945000EDCF0E9462007F
S1130120EACF0E945C00E7CF0E945700C13319F464
S11301300E946800E0CFC233F1F60E946E00DBCF6C
S1130140CF93C82F41E067E083E00E948E0141E035
S113015063E082E00E948E0141E064E082E00E945C
S11301608E018C2F0E94500341E063E082E00E94E4
S1130170010240E064E082E00E940102CF91089510
S1130180CF93C82F41E067E083E00E948E0141E0F5
S113019063E082E00E948E0141E064E082E00E941C
S11301A08E018C2F0E94500340E063E082E00E94A5
S11301B0010241E064E082E00E940102CF910895CF
S11301C041E067E083E00E948E0141E063E082E069
S11301D00E948E0141E064E082E00E948E0180E092
S11301E00E94500340E063E082E00E94010240E08C
S11301F064E082E00E9401020895CF93C82F41E099
S113020063E081E00E948E0141E065E082E00E94AB
S11302108E0141E066E082E00E948E018C2F0E94F4
S1130220E90241E065E082E00E94010240E066E00C
S113023082E00E940102CF910895CF93C82F41E03C
S113024063E081E00E948E0141E065E082E00E946B
S11302508E0141E066E082E00E948E018C2F0E94B4
S1130260E90240E065E082E00E94010241E066E0CC
S113027082E00E940102CF91089541E063E081E0B1
S11302800E948E0141E065E082E00E948E0141E01F
S113029066E082E00E948E0180E00E94E90240E074
S11302A065E082E00E94010240E066E082E00E9494
S11302B0010208951F920F920FB60F9211242F93EB
S11302C03F934F935F936F937F938F939F93AF93DA
S11302D0BF93EF93FF93E0916200F0916300309736
S11302E061F0A0916000B091610084B195B18D93EB
S11302F09C93099586B1877F86B9FF91EF91BF9151
S1130300AF919F918F917F916F915F914F913F91A9
S11303102F910F900FBE0F901F901895423008F048
S11303206FC04130A1F5813089F028F08230C9F0E6
S1130330833011F108952AB381E090E002C0880F60
S1130340991F6A95E2F7822B8ABB089527B381E04F
S113035090E002C0880F991F6A95E2F7822B87BB51
S1130360089524B381E090E002C0880F991F6A9534
S1130370E2F7822B84BB089521B381E090E002C0B0
S1130380880F991F6A95E2F7822B81BB089541116A
S113039037C0813091F028F08230D9F0833029F1D0
S11303A008952AB381E090E002C0880F991F6A95EE
S11303B0E2F7809582238ABB089527B381E090E019
S11303C002C0880F991F6A95E2F78095822387BB44
S11303D0089524B381E090E002C0880F991F6A95C4
S11303E0E2F78095822384BB089521B381E090E0F5
S11303F002C0880F991F6A95E2F78095822381BB1A
S11304000895423008F06FC04130A1F5813089F081
S113041028F08230C9F0833011F108952BB381E0C4
S113042090E002C0880F991F6A95E2F7822B8BBB7C
S1130430089528B381E090E002C0880F991F6A955F
S1130440E2F7822B88BB089525B381E090E002C0D7
S1130450880F991F6A95E2F7822B85BB089522B312
S113046081E090E002C0880F991F6A95E2F7822B21
S113047082BB0895411137C0813091F028F0823059
S1130480D9F0833029F108952BB381E090E002C0C4
S1130490880F991F6A95E2F7809582238BBB089594
S11304A028B381E090E002C0880F991F6A95E2F7B3
S11304B08095822388BB089525B381E090E002C033
S11304C0880F991F6A95E2F78095822385BB08956A
S11304D022B381E090E002C0880F991F6A95E2F789
S11304E08095822382BB08951F920F920FB60F92BC
S11304F011242F933F934F935F936F937F938F9325
S11305009F93AF93BF93EF93FF93E0916400F091B7
S113051065000995FF91EF91BF91AF919F918F91E4
S11305207F916F915F914F913F912F910F900FBEEB
S11305300F901F9018951F920F920FB60F921124CF
S11305402F933F934F935F936F937F938F939F93D7
S1130550AF93BF93EF93FF93E0916600F091670030
S11305600995FF91EF91BF91AF919F918F917F91E9
S11305706F915F914F913F912F910F900FBE0F900C
S11305801F9018951F920F920FB60F9211242F935C
S11305903F934F935F936F937F938F939F93AF9307
S11305A0BF93EF93FF93E0916800F0916900099580
S11305B0FF91EF91BF91AF919F918F917F916F9137
S11305C05F914F913F912F910F900FBE0F901F900D
S11305D0189593B7906493BF93B7986093BF93B7FC
S11305E0906293BF93B79F7E93BF93B7987F93BF57
S11305F093B7936093BF880F8CBF08951F920F9297
S11306000FB60F9211242F933F934F935F936F93E1
S11306107F938F939F93AF93BF93EF93FF93E09157
S11306206A00F0916B00309709F00995FF91EF9102
S1130630BF91AF919F918F917F916F915F914F91F6
S11306403F912F910F900FBE0F901F9018951F92FE
S11306500F920FB60F9211242F933F934F935F93F2
S11306606F937F938F939F93AF93BF93EF93FF9376
S1130670E0916C00F0916D00309709F00995FF91BD
S1130680EF91BF91AF919F918F917F916F915F9106
S11306904F913F912F910F900FBE0F901F9018957F
S11306A095B5906495BD95B5986095BD95B59062E6
S11306B095BD95B59F7E95BD95B5987F95BD95B52E
S11306C0936095BD880F83BD08951F920F920FB656
S11306D00F9211242F933F934F935F936F937F93C4
S11306E08F939F93AF93BF93EF93FF93E0916E002B
S11306F0F0916F00309709F00995FF91EF91BF9148
S1130700AF919F918F917F916F915F914F913F91A5
S11307102F910F900FBE0F901F9018951F920F925C
S11307200FB60F9211242F933F934F935F936F93C0
S11307307F938F939F93AF93BF93EF93FF93E09136
S11307407000F0917100309709F00995FF91EF91D5
S1130750BF91AF919F918F917F916F915F914F91D5
S11307603F912F910F900FBE0F901F90189587E621
S113077089B980B58F7B80BD80B58F7C80BD80B505
S113078080BD80B5877F80BD80B5866880BD8AB115
S113079080618AB98AB188608AB908955F9BFECF67
S10B07A08CB10895F894FFCF19
S9030000FC
